{
  "contractName": "verifySignature",
  "abi": [
    {
      "inputs": [
        {
          "internalType": "address",
          "name": "_to",
          "type": "address"
        },
        {
          "internalType": "string",
          "name": "_message",
          "type": "string"
        },
        {
          "internalType": "uint256",
          "name": "_nonce",
          "type": "uint256"
        }
      ],
      "name": "getMessageHash",
      "outputs": [
        {
          "internalType": "bytes32",
          "name": "",
          "type": "bytes32"
        }
      ],
      "stateMutability": "pure",
      "type": "function",
      "constant": true
    },
    {
      "inputs": [
        {
          "internalType": "bytes32",
          "name": "_messageHash",
          "type": "bytes32"
        }
      ],
      "name": "getSignedMessageHash",
      "outputs": [
        {
          "internalType": "bytes32",
          "name": "",
          "type": "bytes32"
        }
      ],
      "stateMutability": "pure",
      "type": "function",
      "constant": true
    },
    {
      "inputs": [
        {
          "internalType": "address",
          "name": "_signer",
          "type": "address"
        },
        {
          "internalType": "address",
          "name": "_to",
          "type": "address"
        },
        {
          "internalType": "string",
          "name": "_message",
          "type": "string"
        },
        {
          "internalType": "uint256",
          "name": "_nonce",
          "type": "uint256"
        },
        {
          "internalType": "bytes",
          "name": "_signature",
          "type": "bytes"
        }
      ],
      "name": "verify",
      "outputs": [
        {
          "internalType": "bool",
          "name": "",
          "type": "bool"
        }
      ],
      "stateMutability": "pure",
      "type": "function",
      "constant": true
    },
    {
      "inputs": [
        {
          "internalType": "bytes32",
          "name": "_signedMessageHash",
          "type": "bytes32"
        },
        {
          "internalType": "bytes",
          "name": "_signature",
          "type": "bytes"
        }
      ],
      "name": "recoverSigner",
      "outputs": [
        {
          "internalType": "address",
          "name": "",
          "type": "address"
        }
      ],
      "stateMutability": "pure",
      "type": "function",
      "constant": true
    },
    {
      "inputs": [
        {
          "internalType": "bytes",
          "name": "_sig",
          "type": "bytes"
        }
      ],
      "name": "splitSignature",
      "outputs": [
        {
          "internalType": "bytes32",
          "name": "r",
          "type": "bytes32"
        },
        {
          "internalType": "bytes32",
          "name": "s",
          "type": "bytes32"
        },
        {
          "internalType": "uint8",
          "name": "v",
          "type": "uint8"
        }
      ],
      "stateMutability": "pure",
      "type": "function",
      "constant": true
    }
  ],
  "bytecode": "0x608060405234801561001057600080fd5b50610b2a806100206000396000f3fe608060405234801561001057600080fd5b50600436106100575760003560e01c8063082d8f291461005c5780631e31549e1461008c57806397aba7f9146100bc578063a7bb5803146100ec578063e832d2d71461011e575b600080fd5b610076600480360381019061007191906104db565b61014e565b6040516100839190610563565b60405180910390f35b6100a660048036038101906100a1919061061f565b610184565b6040516100b391906106ed565b60405180910390f35b6100d660048036038101906100d19190610734565b6101e6565b6040516100e3919061079f565b60405180910390f35b610106600480360381019061010191906107ba565b610255565b6040516101159392919061081f565b60405180910390f35b61013860048036038101906101339190610856565b6102bd565b6040516101459190610563565b60405180910390f35b600083838360405160200161016593929190610966565b6040516020818303038152906040528051906020012090509392505050565b60008061019286868661014e565b9050600061019f826102bd565b90508773ffffffffffffffffffffffffffffffffffffffff166101c282866101e6565b73ffffffffffffffffffffffffffffffffffffffff16149250505095945050505050565b6000806000806101f585610255565b9250925092506001868285856040516000815260200160405260405161021e949392919061099f565b6020604051602081039080840390855afa158015610240573d6000803e3d6000fd5b50505060206040510351935050505092915050565b6000806000604184511461029e576040517f08c379a000000000000000000000000000000000000000000000000000000000815260040161029590610a41565b60405180910390fd5b6020840151925060408401519150606084015160001a90509193909250565b6000816040516020016102d09190610ace565b604051602081830303815290604052805190602001209050919050565b6000604051905090565b600080fd5b600080fd5b600073ffffffffffffffffffffffffffffffffffffffff82169050919050565b600061032c82610301565b9050919050565b61033c81610321565b811461034757600080fd5b50565b60008135905061035981610333565b92915050565b600080fd5b600080fd5b6000601f19601f8301169050919050565b7f4e487b7100000000000000000000000000000000000000000000000000000000600052604160045260246000fd5b6103b282610369565b810181811067ffffffffffffffff821117156103d1576103d061037a565b5b80604052505050565b60006103e46102ed565b90506103f082826103a9565b919050565b600067ffffffffffffffff8211156104105761040f61037a565b5b61041982610369565b9050602081019050919050565b82818337600083830152505050565b6000610448610443846103f5565b6103da565b90508281526020810184848401111561046457610463610364565b5b61046f848285610426565b509392505050565b600082601f83011261048c5761048b61035f565b5b813561049c848260208601610435565b91505092915050565b6000819050919050565b6104b8816104a5565b81146104c357600080fd5b50565b6000813590506104d5816104af565b92915050565b6000806000606084860312156104f4576104f36102f7565b5b60006105028682870161034a565b935050602084013567ffffffffffffffff811115610523576105226102fc565b5b61052f86828701610477565b9250506040610540868287016104c6565b9150509250925092565b6000819050919050565b61055d8161054a565b82525050565b60006020820190506105786000830184610554565b92915050565b600067ffffffffffffffff8211156105995761059861037a565b5b6105a282610369565b9050602081019050919050565b60006105c26105bd8461057e565b6103da565b9050828152602081018484840111156105de576105dd610364565b5b6105e9848285610426565b509392505050565b600082601f8301126106065761060561035f565b5b81356106168482602086016105af565b91505092915050565b600080600080600060a0868803121561063b5761063a6102f7565b5b60006106498882890161034a565b955050602061065a8882890161034a565b945050604086013567ffffffffffffffff81111561067b5761067a6102fc565b5b61068788828901610477565b9350506060610698888289016104c6565b925050608086013567ffffffffffffffff8111156106b9576106b86102fc565b5b6106c5888289016105f1565b9150509295509295909350565b60008115159050919050565b6106e7816106d2565b82525050565b600060208201905061070260008301846106de565b92915050565b6107118161054a565b811461071c57600080fd5b50565b60008135905061072e81610708565b92915050565b6000806040838503121561074b5761074a6102f7565b5b60006107598582860161071f565b925050602083013567ffffffffffffffff81111561077a576107796102fc565b5b610786858286016105f1565b9150509250929050565b61079981610321565b82525050565b60006020820190506107b46000830184610790565b92915050565b6000602082840312156107d0576107cf6102f7565b5b600082013567ffffffffffffffff8111156107ee576107ed6102fc565b5b6107fa848285016105f1565b91505092915050565b600060ff82169050919050565b61081981610803565b82525050565b60006060820190506108346000830186610554565b6108416020830185610554565b61084e6040830184610810565b949350505050565b60006020828403121561086c5761086b6102f7565b5b600061087a8482850161071f565b91505092915050565b60008160601b9050919050565b600061089b82610883565b9050919050565b60006108ad82610890565b9050919050565b6108c56108c082610321565b6108a2565b82525050565b600081519050919050565b600081905092915050565b60005b838110156108ff5780820151818401526020810190506108e4565b8381111561090e576000848401525b50505050565b600061091f826108cb565b61092981856108d6565b93506109398185602086016108e1565b80840191505092915050565b6000819050919050565b61096061095b826104a5565b610945565b82525050565b600061097282866108b4565b6014820191506109828285610914565b915061098e828461094f565b602082019150819050949350505050565b60006080820190506109b46000830187610554565b6109c16020830186610810565b6109ce6040830185610554565b6109db6060830184610554565b95945050505050565b600082825260208201905092915050565b7f696e76616c6964207369676e6174757265206c656e6774680000000000000000600082015250565b6000610a2b6018836109e4565b9150610a36826109f5565b602082019050919050565b60006020820190508181036000830152610a5a81610a1e565b9050919050565b7f19457468657265756d205369676e6564204d6573736167650a33320000000000600082015250565b6000610a97601b836108d6565b9150610aa282610a61565b601b82019050919050565b6000819050919050565b610ac8610ac38261054a565b610aad565b82525050565b6000610ad982610a8a565b9150610ae58284610ab7565b6020820191508190509291505056fea264697066735822122072fdb199a26df3826260b33fed7e5dbcf38726fd9ab162185724b3ca22fc511564736f6c634300080a0033",
  "immutableReferences": {},
  "source": "// SPDX-License-Identifier: GPL-3.0\r\n\r\npragma solidity 0.8.10;\r\n\r\n/*  Signature varification\r\n\r\nhow to sign and verify message\r\n\r\n#Signing\r\n1. create message to sign\r\n2. hash the message\r\n3. sign the hash (off chain, keep your private key secret)\r\n\r\n#verify\r\n1. recreate hash from the original message\r\n2. recover signer from the signature and hash (collectively)\r\n3. compare recovered signer to claimed signer\r\n*/\r\ncontract verifySignature {\r\n\r\n    //this function covers 1 & 2 steps from signing\r\n    function getMessageHash(address _to, string memory _message, uint _nonce) \r\n        public pure returns (bytes32) \r\n    {\r\n            return keccak256(abi.encodePacked(_to, _message, _nonce));\r\n    }\r\n    \r\n    \r\n    /*signature is produced by signing a keccak256 hash with the following format:*/\r\n    // -> \"\\x19Ethereum Signed Message\\n\" + length(msg) + msg\r\n    // -> \\x19Ethereum Signed Message\\n32 + MESSAGE_HERE\r\n    function getSignedMessageHash(bytes32 _messageHash) public pure returns (bytes32) {\r\n        return keccak256(abi.encodePacked(\"\\x19Ethereum Signed Message\\n32\", _messageHash));\r\n    }\r\n\r\n    // this function will compute the hash and produce & return signer address\r\n    function verify (address _signer, address _to, string memory _message, \r\n                    uint _nonce, bytes memory _signature) public pure returns (bool){\r\n         bytes32 messageHash = getMessageHash(_to, _message, _nonce);\r\n         bytes32 signedMessageHash = getSignedMessageHash(messageHash);\r\n         return recoverSigner(signedMessageHash, _signature) == _signer;\r\n     }\r\n\r\n    function recoverSigner (bytes32 _signedMessageHash, bytes memory _signature) \r\n        public pure returns (address){\r\n        \r\n        (bytes32 r, bytes32 s, uint8 v) = splitSignature(_signature);\r\n        return ecrecover(_signedMessageHash, v, r, s);\r\n    }\r\n\r\n    function splitSignature(bytes memory _sig)\r\n        public pure returns (bytes32 r, bytes32 s, uint8 v) {\r\n            require(_sig.length == 65, \"invalid signature length\"); // 65 bytes = 32 bytes for r + 32 bytes for s + 1 byte for v\r\n\r\n            // add(x, y)        -> x + y\r\n            // add(_sig, 32)    -> skips firt 32 bytes\r\n            // mload(p) loads next 32 bytes starting at the memory address p\r\n\r\n            assembly {\r\n                r:= mload(add(_sig, 32))    //signature\r\n                s:= mload(add(_sig, 64))    //value\r\n                v:=byte(0, mload(add(_sig, 96)))\r\n \r\n\r\n            }\r\n    }\r\n}",
  "sourcePath": "F:\\vulgate\\xord-challenges\\typeB\\sign-message-with-nodejs\\contracts\\challenge7.sol",
  "compiler": {
    "name": "solc",
    "version": "0.8.10+commit.fc410830.Emscripten.clang"
  },
  "schemaVersion": "3.4.3",
  "updatedAt": "2021-12-13T08:02:21.606Z",
  "networkType": "ethereum",
  "devdoc": {
    "kind": "dev",
    "methods": {},
    "version": 1
  },
  "userdoc": {
    "kind": "user",
    "methods": {},
    "version": 1
  }
}