{
	"data": {
		"bytecode": {
			"linkReferences": {},
			"object": "60806040526000600160006101000a81548160ff02191690831515021790555034801561002b57600080fd5b50604051610592380380610592833981810160405281019061004d9190610197565b8060009080519060200190610063929190610084565b5060018060006101000a81548160ff0219169083151502179055505061034f565b82805461009090610269565b90600052602060002090601f0160209004810192826100b257600085556100f9565b82601f106100cb57805160ff19168380011785556100f9565b828001600101855582156100f9579182015b828111156100f85782518255916020019190600101906100dd565b5b509050610106919061010a565b5090565b5b8082111561012357600081600090555060010161010b565b5090565b600061013a61013584610205565b6101e0565b9050828152602081018484840111156101565761015561032f565b5b610161848285610236565b509392505050565b600082601f83011261017e5761017d61032a565b5b815161018e848260208601610127565b91505092915050565b6000602082840312156101ad576101ac610339565b5b600082015167ffffffffffffffff8111156101cb576101ca610334565b5b6101d784828501610169565b91505092915050565b60006101ea6101fb565b90506101f6828261029b565b919050565b6000604051905090565b600067ffffffffffffffff8211156102205761021f6102fb565b5b6102298261033e565b9050602081019050919050565b60005b83811015610254578082015181840152602081019050610239565b83811115610263576000848401525b50505050565b6000600282049050600182168061028157607f821691505b60208210811415610295576102946102cc565b5b50919050565b6102a48261033e565b810181811067ffffffffffffffff821117156102c3576102c26102fb565b5b80604052505050565b7f4e487b7100000000000000000000000000000000000000000000000000000000600052602260045260246000fd5b7f4e487b7100000000000000000000000000000000000000000000000000000000600052604160045260246000fd5b600080fd5b600080fd5b600080fd5b600080fd5b6000601f19601f8301169050919050565b6102348061035e6000396000f3fe608060405234801561001057600080fd5b506004361061002b5760003560e01c8063546adf4014610030575b600080fd5b61003861003a565b005b7f07f70b18002b3b297a91ede416bace50e4f2665f1f9511e171b23a609d7a8e6f3330600060405161006e93929190610107565b60405180910390a1565b6100818161016b565b82525050565b600081546100948161019d565b61009e818661015a565b945060018216600081146100b957600181146100cb576100fe565b60ff19831686526020860193506100fe565b6100d485610145565b60005b838110156100f6578154818901526001820191506020810190506100d7565b808801955050505b50505092915050565b600060608201905061011c6000830186610078565b6101296020830185610078565b818103604083015261013b8184610087565b9050949350505050565b60008190508160005260206000209050919050565b600082825260208201905092915050565b60006101768261017d565b9050919050565b600073ffffffffffffffffffffffffffffffffffffffff82169050919050565b600060028204905060018216806101b557607f821691505b602082108114156101c9576101c86101cf565b5b50919050565b7f4e487b7100000000000000000000000000000000000000000000000000000000600052602260045260246000fdfea2646970667358221220b6a83dc4d579e53dde3383b4fdf5919f3336ab114dc22e83899d0c9eae814f8864736f6c63430008070033",
			"opcodes": "PUSH1 0x80 PUSH1 0x40 MSTORE PUSH1 0x0 PUSH1 0x1 PUSH1 0x0 PUSH2 0x100 EXP DUP2 SLOAD DUP2 PUSH1 0xFF MUL NOT AND SWAP1 DUP4 ISZERO ISZERO MUL OR SWAP1 SSTORE POP CALLVALUE DUP1 ISZERO PUSH2 0x2B JUMPI PUSH1 0x0 DUP1 REVERT JUMPDEST POP PUSH1 0x40 MLOAD PUSH2 0x592 CODESIZE SUB DUP1 PUSH2 0x592 DUP4 CODECOPY DUP2 DUP2 ADD PUSH1 0x40 MSTORE DUP2 ADD SWAP1 PUSH2 0x4D SWAP2 SWAP1 PUSH2 0x197 JUMP JUMPDEST DUP1 PUSH1 0x0 SWAP1 DUP1 MLOAD SWAP1 PUSH1 0x20 ADD SWAP1 PUSH2 0x63 SWAP3 SWAP2 SWAP1 PUSH2 0x84 JUMP JUMPDEST POP PUSH1 0x1 DUP1 PUSH1 0x0 PUSH2 0x100 EXP DUP2 SLOAD DUP2 PUSH1 0xFF MUL NOT AND SWAP1 DUP4 ISZERO ISZERO MUL OR SWAP1 SSTORE POP POP PUSH2 0x34F JUMP JUMPDEST DUP3 DUP1 SLOAD PUSH2 0x90 SWAP1 PUSH2 0x269 JUMP JUMPDEST SWAP1 PUSH1 0x0 MSTORE PUSH1 0x20 PUSH1 0x0 KECCAK256 SWAP1 PUSH1 0x1F ADD PUSH1 0x20 SWAP1 DIV DUP2 ADD SWAP3 DUP3 PUSH2 0xB2 JUMPI PUSH1 0x0 DUP6 SSTORE PUSH2 0xF9 JUMP JUMPDEST DUP3 PUSH1 0x1F LT PUSH2 0xCB JUMPI DUP1 MLOAD PUSH1 0xFF NOT AND DUP4 DUP1 ADD OR DUP6 SSTORE PUSH2 0xF9 JUMP JUMPDEST DUP3 DUP1 ADD PUSH1 0x1 ADD DUP6 SSTORE DUP3 ISZERO PUSH2 0xF9 JUMPI SWAP2 DUP3 ADD JUMPDEST DUP3 DUP2 GT ISZERO PUSH2 0xF8 JUMPI DUP3 MLOAD DUP3 SSTORE SWAP2 PUSH1 0x20 ADD SWAP2 SWAP1 PUSH1 0x1 ADD SWAP1 PUSH2 0xDD JUMP JUMPDEST JUMPDEST POP SWAP1 POP PUSH2 0x106 SWAP2 SWAP1 PUSH2 0x10A JUMP JUMPDEST POP SWAP1 JUMP JUMPDEST JUMPDEST DUP1 DUP3 GT ISZERO PUSH2 0x123 JUMPI PUSH1 0x0 DUP2 PUSH1 0x0 SWAP1 SSTORE POP PUSH1 0x1 ADD PUSH2 0x10B JUMP JUMPDEST POP SWAP1 JUMP JUMPDEST PUSH1 0x0 PUSH2 0x13A PUSH2 0x135 DUP5 PUSH2 0x205 JUMP JUMPDEST PUSH2 0x1E0 JUMP JUMPDEST SWAP1 POP DUP3 DUP2 MSTORE PUSH1 0x20 DUP2 ADD DUP5 DUP5 DUP5 ADD GT ISZERO PUSH2 0x156 JUMPI PUSH2 0x155 PUSH2 0x32F JUMP JUMPDEST JUMPDEST PUSH2 0x161 DUP5 DUP3 DUP6 PUSH2 0x236 JUMP JUMPDEST POP SWAP4 SWAP3 POP POP POP JUMP JUMPDEST PUSH1 0x0 DUP3 PUSH1 0x1F DUP4 ADD SLT PUSH2 0x17E JUMPI PUSH2 0x17D PUSH2 0x32A JUMP JUMPDEST JUMPDEST DUP2 MLOAD PUSH2 0x18E DUP5 DUP3 PUSH1 0x20 DUP7 ADD PUSH2 0x127 JUMP JUMPDEST SWAP2 POP POP SWAP3 SWAP2 POP POP JUMP JUMPDEST PUSH1 0x0 PUSH1 0x20 DUP3 DUP5 SUB SLT ISZERO PUSH2 0x1AD JUMPI PUSH2 0x1AC PUSH2 0x339 JUMP JUMPDEST JUMPDEST PUSH1 0x0 DUP3 ADD MLOAD PUSH8 0xFFFFFFFFFFFFFFFF DUP2 GT ISZERO PUSH2 0x1CB JUMPI PUSH2 0x1CA PUSH2 0x334 JUMP JUMPDEST JUMPDEST PUSH2 0x1D7 DUP5 DUP3 DUP6 ADD PUSH2 0x169 JUMP JUMPDEST SWAP2 POP POP SWAP3 SWAP2 POP POP JUMP JUMPDEST PUSH1 0x0 PUSH2 0x1EA PUSH2 0x1FB JUMP JUMPDEST SWAP1 POP PUSH2 0x1F6 DUP3 DUP3 PUSH2 0x29B JUMP JUMPDEST SWAP2 SWAP1 POP JUMP JUMPDEST PUSH1 0x0 PUSH1 0x40 MLOAD SWAP1 POP SWAP1 JUMP JUMPDEST PUSH1 0x0 PUSH8 0xFFFFFFFFFFFFFFFF DUP3 GT ISZERO PUSH2 0x220 JUMPI PUSH2 0x21F PUSH2 0x2FB JUMP JUMPDEST JUMPDEST PUSH2 0x229 DUP3 PUSH2 0x33E JUMP JUMPDEST SWAP1 POP PUSH1 0x20 DUP2 ADD SWAP1 POP SWAP2 SWAP1 POP JUMP JUMPDEST PUSH1 0x0 JUMPDEST DUP4 DUP2 LT ISZERO PUSH2 0x254 JUMPI DUP1 DUP3 ADD MLOAD DUP2 DUP5 ADD MSTORE PUSH1 0x20 DUP2 ADD SWAP1 POP PUSH2 0x239 JUMP JUMPDEST DUP4 DUP2 GT ISZERO PUSH2 0x263 JUMPI PUSH1 0x0 DUP5 DUP5 ADD MSTORE JUMPDEST POP POP POP POP JUMP JUMPDEST PUSH1 0x0 PUSH1 0x2 DUP3 DIV SWAP1 POP PUSH1 0x1 DUP3 AND DUP1 PUSH2 0x281 JUMPI PUSH1 0x7F DUP3 AND SWAP2 POP JUMPDEST PUSH1 0x20 DUP3 LT DUP2 EQ ISZERO PUSH2 0x295 JUMPI PUSH2 0x294 PUSH2 0x2CC JUMP JUMPDEST JUMPDEST POP SWAP2 SWAP1 POP JUMP JUMPDEST PUSH2 0x2A4 DUP3 PUSH2 0x33E JUMP JUMPDEST DUP2 ADD DUP2 DUP2 LT PUSH8 0xFFFFFFFFFFFFFFFF DUP3 GT OR ISZERO PUSH2 0x2C3 JUMPI PUSH2 0x2C2 PUSH2 0x2FB JUMP JUMPDEST JUMPDEST DUP1 PUSH1 0x40 MSTORE POP POP POP JUMP JUMPDEST PUSH32 0x4E487B7100000000000000000000000000000000000000000000000000000000 PUSH1 0x0 MSTORE PUSH1 0x22 PUSH1 0x4 MSTORE PUSH1 0x24 PUSH1 0x0 REVERT JUMPDEST PUSH32 0x4E487B7100000000000000000000000000000000000000000000000000000000 PUSH1 0x0 MSTORE PUSH1 0x41 PUSH1 0x4 MSTORE PUSH1 0x24 PUSH1 0x0 REVERT JUMPDEST PUSH1 0x0 DUP1 REVERT JUMPDEST PUSH1 0x0 DUP1 REVERT JUMPDEST PUSH1 0x0 DUP1 REVERT JUMPDEST PUSH1 0x0 DUP1 REVERT JUMPDEST PUSH1 0x0 PUSH1 0x1F NOT PUSH1 0x1F DUP4 ADD AND SWAP1 POP SWAP2 SWAP1 POP JUMP JUMPDEST PUSH2 0x234 DUP1 PUSH2 0x35E PUSH1 0x0 CODECOPY PUSH1 0x0 RETURN INVALID PUSH1 0x80 PUSH1 0x40 MSTORE CALLVALUE DUP1 ISZERO PUSH2 0x10 JUMPI PUSH1 0x0 DUP1 REVERT JUMPDEST POP PUSH1 0x4 CALLDATASIZE LT PUSH2 0x2B JUMPI PUSH1 0x0 CALLDATALOAD PUSH1 0xE0 SHR DUP1 PUSH4 0x546ADF40 EQ PUSH2 0x30 JUMPI JUMPDEST PUSH1 0x0 DUP1 REVERT JUMPDEST PUSH2 0x38 PUSH2 0x3A JUMP JUMPDEST STOP JUMPDEST PUSH32 0x7F70B18002B3B297A91EDE416BACE50E4F2665F1F9511E171B23A609D7A8E6F CALLER ADDRESS PUSH1 0x0 PUSH1 0x40 MLOAD PUSH2 0x6E SWAP4 SWAP3 SWAP2 SWAP1 PUSH2 0x107 JUMP JUMPDEST PUSH1 0x40 MLOAD DUP1 SWAP2 SUB SWAP1 LOG1 JUMP JUMPDEST PUSH2 0x81 DUP2 PUSH2 0x16B JUMP JUMPDEST DUP3 MSTORE POP POP JUMP JUMPDEST PUSH1 0x0 DUP2 SLOAD PUSH2 0x94 DUP2 PUSH2 0x19D JUMP JUMPDEST PUSH2 0x9E DUP2 DUP7 PUSH2 0x15A JUMP JUMPDEST SWAP5 POP PUSH1 0x1 DUP3 AND PUSH1 0x0 DUP2 EQ PUSH2 0xB9 JUMPI PUSH1 0x1 DUP2 EQ PUSH2 0xCB JUMPI PUSH2 0xFE JUMP JUMPDEST PUSH1 0xFF NOT DUP4 AND DUP7 MSTORE PUSH1 0x20 DUP7 ADD SWAP4 POP PUSH2 0xFE JUMP JUMPDEST PUSH2 0xD4 DUP6 PUSH2 0x145 JUMP JUMPDEST PUSH1 0x0 JUMPDEST DUP4 DUP2 LT ISZERO PUSH2 0xF6 JUMPI DUP2 SLOAD DUP2 DUP10 ADD MSTORE PUSH1 0x1 DUP3 ADD SWAP2 POP PUSH1 0x20 DUP2 ADD SWAP1 POP PUSH2 0xD7 JUMP JUMPDEST DUP1 DUP9 ADD SWAP6 POP POP POP JUMPDEST POP POP POP SWAP3 SWAP2 POP POP JUMP JUMPDEST PUSH1 0x0 PUSH1 0x60 DUP3 ADD SWAP1 POP PUSH2 0x11C PUSH1 0x0 DUP4 ADD DUP7 PUSH2 0x78 JUMP JUMPDEST PUSH2 0x129 PUSH1 0x20 DUP4 ADD DUP6 PUSH2 0x78 JUMP JUMPDEST DUP2 DUP2 SUB PUSH1 0x40 DUP4 ADD MSTORE PUSH2 0x13B DUP2 DUP5 PUSH2 0x87 JUMP JUMPDEST SWAP1 POP SWAP5 SWAP4 POP POP POP POP JUMP JUMPDEST PUSH1 0x0 DUP2 SWAP1 POP DUP2 PUSH1 0x0 MSTORE PUSH1 0x20 PUSH1 0x0 KECCAK256 SWAP1 POP SWAP2 SWAP1 POP JUMP JUMPDEST PUSH1 0x0 DUP3 DUP3 MSTORE PUSH1 0x20 DUP3 ADD SWAP1 POP SWAP3 SWAP2 POP POP JUMP JUMPDEST PUSH1 0x0 PUSH2 0x176 DUP3 PUSH2 0x17D JUMP JUMPDEST SWAP1 POP SWAP2 SWAP1 POP JUMP JUMPDEST PUSH1 0x0 PUSH20 0xFFFFFFFFFFFFFFFFFFFFFFFFFFFFFFFFFFFFFFFF DUP3 AND SWAP1 POP SWAP2 SWAP1 POP JUMP JUMPDEST PUSH1 0x0 PUSH1 0x2 DUP3 DIV SWAP1 POP PUSH1 0x1 DUP3 AND DUP1 PUSH2 0x1B5 JUMPI PUSH1 0x7F DUP3 AND SWAP2 POP JUMPDEST PUSH1 0x20 DUP3 LT DUP2 EQ ISZERO PUSH2 0x1C9 JUMPI PUSH2 0x1C8 PUSH2 0x1CF JUMP JUMPDEST JUMPDEST POP SWAP2 SWAP1 POP JUMP JUMPDEST PUSH32 0x4E487B7100000000000000000000000000000000000000000000000000000000 PUSH1 0x0 MSTORE PUSH1 0x22 PUSH1 0x4 MSTORE PUSH1 0x24 PUSH1 0x0 REVERT INVALID LOG2 PUSH5 0x6970667358 0x22 SLT KECCAK256 0xB6 0xA8 RETURNDATASIZE 0xC4 0xD5 PUSH26 0xE53DDE3383B4FDF5919F3336AB114DC22E83899D0C9EAE814F88 PUSH5 0x736F6C6343 STOP ADDMOD SMOD STOP CALLER "
		},
		"gasEstimates": {
			"creation": {
				"codeDepositCost": "112800",
				"executionCost": "infinite",
				"totalCost": "infinite"
			},
			"external": {
				"validateTheCreation()": "infinite"
			}
		},
		"methodIdentifiers": {
			"validateTheCreation()": "546adf40"
		}
	},
	"abi": [
		{
			"inputs": [
				{
					"internalType": "string",
					"name": "_name",
					"type": "string"
				}
			],
			"stateMutability": "nonpayable",
			"type": "constructor"
		},
		{
			"anonymous": false,
			"inputs": [
				{
					"indexed": false,
					"internalType": "address",
					"name": "_parentAddress",
					"type": "address"
				},
				{
					"indexed": false,
					"internalType": "address",
					"name": "childAddress",
					"type": "address"
				},
				{
					"indexed": false,
					"internalType": "string",
					"name": "_name",
					"type": "string"
				}
			],
			"name": "Initialize",
			"type": "event"
		},
		{
			"inputs": [],
			"name": "validateTheCreation",
			"outputs": [],
			"stateMutability": "nonpayable",
			"type": "function"
		}
	]
}