{
	"data": {
		"bytecode": {
			"linkReferences": {},
			"object": "6080604052600060015534801561001557600080fd5b5061003261002761003760201b60201c565b61003f60201b60201c565b610103565b600033905090565b60008060009054906101000a900473ffffffffffffffffffffffffffffffffffffffff169050816000806101000a81548173ffffffffffffffffffffffffffffffffffffffff021916908373ffffffffffffffffffffffffffffffffffffffff1602179055508173ffffffffffffffffffffffffffffffffffffffff168173ffffffffffffffffffffffffffffffffffffffff167f8be0079c531659141344cd1fd0a4f28419497f9722a3daafe3b4186f6b6457e060405160405180910390a35050565b611167806101126000396000f3fe60806040523480156200001157600080fd5b5060043610620000525760003560e01c8063715018a614620000575780638da5cb5b1462000063578063f2fde38b1462000085578063fb132b4414620000a5575b600080fd5b62000061620000c5565b005b6200006d62000156565b6040516200007c9190620007bf565b60405180910390f35b620000a360048036038101906200009d919062000664565b6200017f565b005b620000c36004803603810190620000bd919062000696565b62000283565b005b620000cf620004f5565b73ffffffffffffffffffffffffffffffffffffffff16620000ef62000156565b73ffffffffffffffffffffffffffffffffffffffff161462000148576040517f08c379a00000000000000000000000000000000000000000000000000000000081526004016200013f9062000888565b60405180910390fd5b620001546000620004fd565b565b60008060009054906101000a900473ffffffffffffffffffffffffffffffffffffffff16905090565b62000189620004f5565b73ffffffffffffffffffffffffffffffffffffffff16620001a962000156565b73ffffffffffffffffffffffffffffffffffffffff161462000202576040517f08c379a0000000000000000000000000000000000000000000000000000000008152600401620001f99062000888565b60405180910390fd5b600073ffffffffffffffffffffffffffffffffffffffff168173ffffffffffffffffffffffffffffffffffffffff16141562000275576040517f08c379a00000000000000000000000000000000000000000000000000000000081526004016200026c9062000844565b60405180910390fd5b6200028081620004fd565b50565b6200028d620004f5565b73ffffffffffffffffffffffffffffffffffffffff16620002ad62000156565b73ffffffffffffffffffffffffffffffffffffffff161462000306576040517f08c379a0000000000000000000000000000000000000000000000000000000008152600401620002fd9062000888565b60405180910390fd5b806040516200031590620005c1565b620003219190620007dc565b604051809103906000f0801580156200033e573d6000803e3d6000fd5b50600260006101000a81548173ffffffffffffffffffffffffffffffffffffffff021916908373ffffffffffffffffffffffffffffffffffffffff160217905550600073ffffffffffffffffffffffffffffffffffffffff16600260009054906101000a900473ffffffffffffffffffffffffffffffffffffffff1673ffffffffffffffffffffffffffffffffffffffff16141562000414576040517f08c379a00000000000000000000000000000000000000000000000000000000081526004016200040b9062000866565b60405180910390fd5b600260009054906101000a900473ffffffffffffffffffffffffffffffffffffffff1673ffffffffffffffffffffffffffffffffffffffff1663546adf406040518163ffffffff1660e01b8152600401600060405180830381600087803b1580156200047f57600080fd5b505af115801562000494573d6000803e3d6000fd5b505050506001806000828254620004ac919062000925565b925050819055507f60914f5150c7cd538b87dc4f0fa333ed07baf651181a2f8750cae6b208d754328130600154604051620004ea9392919062000800565b60405180910390a150565b600033905090565b60008060009054906101000a900473ffffffffffffffffffffffffffffffffffffffff169050816000806101000a81548173ffffffffffffffffffffffffffffffffffffffff021916908373ffffffffffffffffffffffffffffffffffffffff1602179055508173ffffffffffffffffffffffffffffffffffffffff168173ffffffffffffffffffffffffffffffffffffffff167f8be0079c531659141344cd1fd0a4f28419497f9722a3daafe3b4186f6b6457e060405160405180910390a35050565b6105928062000ba083390190565b6000620005e6620005e084620008d3565b620008aa565b90508281526020810184848401111562000605576200060462000a9e565b5b62000612848285620009c0565b509392505050565b6000813590506200062b8162000b85565b92915050565b600082601f83011262000649576200064862000a99565b5b81356200065b848260208601620005cf565b91505092915050565b6000602082840312156200067d576200067c62000aa8565b5b60006200068d848285016200061a565b91505092915050565b600060208284031215620006af57620006ae62000aa8565b5b600082013567ffffffffffffffff811115620006d057620006cf62000aa3565b5b620006de8482850162000631565b91505092915050565b620006f28162000982565b82525050565b6000620007058262000909565b62000711818562000914565b935062000723818560208601620009cf565b6200072e8162000aad565b840191505092915050565b60006200074860268362000914565b9150620007558262000abe565b604082019050919050565b60006200076f60218362000914565b91506200077c8262000b0d565b604082019050919050565b60006200079660208362000914565b9150620007a38262000b5c565b602082019050919050565b620007b981620009b6565b82525050565b6000602082019050620007d66000830184620006e7565b92915050565b60006020820190508181036000830152620007f88184620006f8565b905092915050565b600060608201905081810360008301526200081c8186620006f8565b90506200082d6020830185620006e7565b6200083c6040830184620007ae565b949350505050565b600060208201905081810360008301526200085f8162000739565b9050919050565b60006020820190508181036000830152620008818162000760565b9050919050565b60006020820190508181036000830152620008a38162000787565b9050919050565b6000620008b6620008c9565b9050620008c4828262000a05565b919050565b6000604051905090565b600067ffffffffffffffff821115620008f157620008f062000a6a565b5b620008fc8262000aad565b9050602081019050919050565b600081519050919050565b600082825260208201905092915050565b60006200093282620009b6565b91506200093f83620009b6565b9250827fffffffffffffffffffffffffffffffffffffffffffffffffffffffffffffffff0382111562000977576200097662000a3b565b5b828201905092915050565b60006200098f8262000996565b9050919050565b600073ffffffffffffffffffffffffffffffffffffffff82169050919050565b6000819050919050565b82818337600083830152505050565b60005b83811015620009ef578082015181840152602081019050620009d2565b83811115620009ff576000848401525b50505050565b62000a108262000aad565b810181811067ffffffffffffffff8211171562000a325762000a3162000a6a565b5b80604052505050565b7f4e487b7100000000000000000000000000000000000000000000000000000000600052601160045260246000fd5b7f4e487b7100000000000000000000000000000000000000000000000000000000600052604160045260246000fd5b600080fd5b600080fd5b600080fd5b600080fd5b6000601f19601f8301169050919050565b7f4f776e61626c653a206e6577206f776e657220697320746865207a65726f206160008201527f6464726573730000000000000000000000000000000000000000000000000000602082015250565b7f506172656e743a20556e6465706c6f796564206368696c6420636f6e7472616360008201527f7400000000000000000000000000000000000000000000000000000000000000602082015250565b7f4f776e61626c653a2063616c6c6572206973206e6f7420746865206f776e6572600082015250565b62000b908162000982565b811462000b9c57600080fd5b5056fe60806040526000600160006101000a81548160ff02191690831515021790555034801561002b57600080fd5b50604051610592380380610592833981810160405281019061004d9190610197565b8060009080519060200190610063929190610084565b5060018060006101000a81548160ff0219169083151502179055505061034f565b82805461009090610269565b90600052602060002090601f0160209004810192826100b257600085556100f9565b82601f106100cb57805160ff19168380011785556100f9565b828001600101855582156100f9579182015b828111156100f85782518255916020019190600101906100dd565b5b509050610106919061010a565b5090565b5b8082111561012357600081600090555060010161010b565b5090565b600061013a61013584610205565b6101e0565b9050828152602081018484840111156101565761015561032f565b5b610161848285610236565b509392505050565b600082601f83011261017e5761017d61032a565b5b815161018e848260208601610127565b91505092915050565b6000602082840312156101ad576101ac610339565b5b600082015167ffffffffffffffff8111156101cb576101ca610334565b5b6101d784828501610169565b91505092915050565b60006101ea6101fb565b90506101f6828261029b565b919050565b6000604051905090565b600067ffffffffffffffff8211156102205761021f6102fb565b5b6102298261033e565b9050602081019050919050565b60005b83811015610254578082015181840152602081019050610239565b83811115610263576000848401525b50505050565b6000600282049050600182168061028157607f821691505b60208210811415610295576102946102cc565b5b50919050565b6102a48261033e565b810181811067ffffffffffffffff821117156102c3576102c26102fb565b5b80604052505050565b7f4e487b7100000000000000000000000000000000000000000000000000000000600052602260045260246000fd5b7f4e487b7100000000000000000000000000000000000000000000000000000000600052604160045260246000fd5b600080fd5b600080fd5b600080fd5b600080fd5b6000601f19601f8301169050919050565b6102348061035e6000396000f3fe608060405234801561001057600080fd5b506004361061002b5760003560e01c8063546adf4014610030575b600080fd5b61003861003a565b005b7f07f70b18002b3b297a91ede416bace50e4f2665f1f9511e171b23a609d7a8e6f3330600060405161006e93929190610107565b60405180910390a1565b6100818161016b565b82525050565b600081546100948161019d565b61009e818661015a565b945060018216600081146100b957600181146100cb576100fe565b60ff19831686526020860193506100fe565b6100d485610145565b60005b838110156100f6578154818901526001820191506020810190506100d7565b808801955050505b50505092915050565b600060608201905061011c6000830186610078565b6101296020830185610078565b818103604083015261013b8184610087565b9050949350505050565b60008190508160005260206000209050919050565b600082825260208201905092915050565b60006101768261017d565b9050919050565b600073ffffffffffffffffffffffffffffffffffffffff82169050919050565b600060028204905060018216806101b557607f821691505b602082108114156101c9576101c86101cf565b5b50919050565b7f4e487b7100000000000000000000000000000000000000000000000000000000600052602260045260246000fdfea2646970667358221220b6a83dc4d579e53dde3383b4fdf5919f3336ab114dc22e83899d0c9eae814f8864736f6c63430008070033a26469706673582212204a480ee5be636a644d62f8f8b639946cdca31e4fa0d43122bd4c3b1bbfc64c9664736f6c63430008070033",
			"opcodes": "PUSH1 0x80 PUSH1 0x40 MSTORE PUSH1 0x0 PUSH1 0x1 SSTORE CALLVALUE DUP1 ISZERO PUSH2 0x15 JUMPI PUSH1 0x0 DUP1 REVERT JUMPDEST POP PUSH2 0x32 PUSH2 0x27 PUSH2 0x37 PUSH1 0x20 SHL PUSH1 0x20 SHR JUMP JUMPDEST PUSH2 0x3F PUSH1 0x20 SHL PUSH1 0x20 SHR JUMP JUMPDEST PUSH2 0x103 JUMP JUMPDEST PUSH1 0x0 CALLER SWAP1 POP SWAP1 JUMP JUMPDEST PUSH1 0x0 DUP1 PUSH1 0x0 SWAP1 SLOAD SWAP1 PUSH2 0x100 EXP SWAP1 DIV PUSH20 0xFFFFFFFFFFFFFFFFFFFFFFFFFFFFFFFFFFFFFFFF AND SWAP1 POP DUP2 PUSH1 0x0 DUP1 PUSH2 0x100 EXP DUP2 SLOAD DUP2 PUSH20 0xFFFFFFFFFFFFFFFFFFFFFFFFFFFFFFFFFFFFFFFF MUL NOT AND SWAP1 DUP4 PUSH20 0xFFFFFFFFFFFFFFFFFFFFFFFFFFFFFFFFFFFFFFFF AND MUL OR SWAP1 SSTORE POP DUP2 PUSH20 0xFFFFFFFFFFFFFFFFFFFFFFFFFFFFFFFFFFFFFFFF AND DUP2 PUSH20 0xFFFFFFFFFFFFFFFFFFFFFFFFFFFFFFFFFFFFFFFF AND PUSH32 0x8BE0079C531659141344CD1FD0A4F28419497F9722A3DAAFE3B4186F6B6457E0 PUSH1 0x40 MLOAD PUSH1 0x40 MLOAD DUP1 SWAP2 SUB SWAP1 LOG3 POP POP JUMP JUMPDEST PUSH2 0x1167 DUP1 PUSH2 0x112 PUSH1 0x0 CODECOPY PUSH1 0x0 RETURN INVALID PUSH1 0x80 PUSH1 0x40 MSTORE CALLVALUE DUP1 ISZERO PUSH3 0x11 JUMPI PUSH1 0x0 DUP1 REVERT JUMPDEST POP PUSH1 0x4 CALLDATASIZE LT PUSH3 0x52 JUMPI PUSH1 0x0 CALLDATALOAD PUSH1 0xE0 SHR DUP1 PUSH4 0x715018A6 EQ PUSH3 0x57 JUMPI DUP1 PUSH4 0x8DA5CB5B EQ PUSH3 0x63 JUMPI DUP1 PUSH4 0xF2FDE38B EQ PUSH3 0x85 JUMPI DUP1 PUSH4 0xFB132B44 EQ PUSH3 0xA5 JUMPI JUMPDEST PUSH1 0x0 DUP1 REVERT JUMPDEST PUSH3 0x61 PUSH3 0xC5 JUMP JUMPDEST STOP JUMPDEST PUSH3 0x6D PUSH3 0x156 JUMP JUMPDEST PUSH1 0x40 MLOAD PUSH3 0x7C SWAP2 SWAP1 PUSH3 0x7BF JUMP JUMPDEST PUSH1 0x40 MLOAD DUP1 SWAP2 SUB SWAP1 RETURN JUMPDEST PUSH3 0xA3 PUSH1 0x4 DUP1 CALLDATASIZE SUB DUP2 ADD SWAP1 PUSH3 0x9D SWAP2 SWAP1 PUSH3 0x664 JUMP JUMPDEST PUSH3 0x17F JUMP JUMPDEST STOP JUMPDEST PUSH3 0xC3 PUSH1 0x4 DUP1 CALLDATASIZE SUB DUP2 ADD SWAP1 PUSH3 0xBD SWAP2 SWAP1 PUSH3 0x696 JUMP JUMPDEST PUSH3 0x283 JUMP JUMPDEST STOP JUMPDEST PUSH3 0xCF PUSH3 0x4F5 JUMP JUMPDEST PUSH20 0xFFFFFFFFFFFFFFFFFFFFFFFFFFFFFFFFFFFFFFFF AND PUSH3 0xEF PUSH3 0x156 JUMP JUMPDEST PUSH20 0xFFFFFFFFFFFFFFFFFFFFFFFFFFFFFFFFFFFFFFFF AND EQ PUSH3 0x148 JUMPI PUSH1 0x40 MLOAD PUSH32 0x8C379A000000000000000000000000000000000000000000000000000000000 DUP2 MSTORE PUSH1 0x4 ADD PUSH3 0x13F SWAP1 PUSH3 0x888 JUMP JUMPDEST PUSH1 0x40 MLOAD DUP1 SWAP2 SUB SWAP1 REVERT JUMPDEST PUSH3 0x154 PUSH1 0x0 PUSH3 0x4FD JUMP JUMPDEST JUMP JUMPDEST PUSH1 0x0 DUP1 PUSH1 0x0 SWAP1 SLOAD SWAP1 PUSH2 0x100 EXP SWAP1 DIV PUSH20 0xFFFFFFFFFFFFFFFFFFFFFFFFFFFFFFFFFFFFFFFF AND SWAP1 POP SWAP1 JUMP JUMPDEST PUSH3 0x189 PUSH3 0x4F5 JUMP JUMPDEST PUSH20 0xFFFFFFFFFFFFFFFFFFFFFFFFFFFFFFFFFFFFFFFF AND PUSH3 0x1A9 PUSH3 0x156 JUMP JUMPDEST PUSH20 0xFFFFFFFFFFFFFFFFFFFFFFFFFFFFFFFFFFFFFFFF AND EQ PUSH3 0x202 JUMPI PUSH1 0x40 MLOAD PUSH32 0x8C379A000000000000000000000000000000000000000000000000000000000 DUP2 MSTORE PUSH1 0x4 ADD PUSH3 0x1F9 SWAP1 PUSH3 0x888 JUMP JUMPDEST PUSH1 0x40 MLOAD DUP1 SWAP2 SUB SWAP1 REVERT JUMPDEST PUSH1 0x0 PUSH20 0xFFFFFFFFFFFFFFFFFFFFFFFFFFFFFFFFFFFFFFFF AND DUP2 PUSH20 0xFFFFFFFFFFFFFFFFFFFFFFFFFFFFFFFFFFFFFFFF AND EQ ISZERO PUSH3 0x275 JUMPI PUSH1 0x40 MLOAD PUSH32 0x8C379A000000000000000000000000000000000000000000000000000000000 DUP2 MSTORE PUSH1 0x4 ADD PUSH3 0x26C SWAP1 PUSH3 0x844 JUMP JUMPDEST PUSH1 0x40 MLOAD DUP1 SWAP2 SUB SWAP1 REVERT JUMPDEST PUSH3 0x280 DUP2 PUSH3 0x4FD JUMP JUMPDEST POP JUMP JUMPDEST PUSH3 0x28D PUSH3 0x4F5 JUMP JUMPDEST PUSH20 0xFFFFFFFFFFFFFFFFFFFFFFFFFFFFFFFFFFFFFFFF AND PUSH3 0x2AD PUSH3 0x156 JUMP JUMPDEST PUSH20 0xFFFFFFFFFFFFFFFFFFFFFFFFFFFFFFFFFFFFFFFF AND EQ PUSH3 0x306 JUMPI PUSH1 0x40 MLOAD PUSH32 0x8C379A000000000000000000000000000000000000000000000000000000000 DUP2 MSTORE PUSH1 0x4 ADD PUSH3 0x2FD SWAP1 PUSH3 0x888 JUMP JUMPDEST PUSH1 0x40 MLOAD DUP1 SWAP2 SUB SWAP1 REVERT JUMPDEST DUP1 PUSH1 0x40 MLOAD PUSH3 0x315 SWAP1 PUSH3 0x5C1 JUMP JUMPDEST PUSH3 0x321 SWAP2 SWAP1 PUSH3 0x7DC JUMP JUMPDEST PUSH1 0x40 MLOAD DUP1 SWAP2 SUB SWAP1 PUSH1 0x0 CREATE DUP1 ISZERO DUP1 ISZERO PUSH3 0x33E JUMPI RETURNDATASIZE PUSH1 0x0 DUP1 RETURNDATACOPY RETURNDATASIZE PUSH1 0x0 REVERT JUMPDEST POP PUSH1 0x2 PUSH1 0x0 PUSH2 0x100 EXP DUP2 SLOAD DUP2 PUSH20 0xFFFFFFFFFFFFFFFFFFFFFFFFFFFFFFFFFFFFFFFF MUL NOT AND SWAP1 DUP4 PUSH20 0xFFFFFFFFFFFFFFFFFFFFFFFFFFFFFFFFFFFFFFFF AND MUL OR SWAP1 SSTORE POP PUSH1 0x0 PUSH20 0xFFFFFFFFFFFFFFFFFFFFFFFFFFFFFFFFFFFFFFFF AND PUSH1 0x2 PUSH1 0x0 SWAP1 SLOAD SWAP1 PUSH2 0x100 EXP SWAP1 DIV PUSH20 0xFFFFFFFFFFFFFFFFFFFFFFFFFFFFFFFFFFFFFFFF AND PUSH20 0xFFFFFFFFFFFFFFFFFFFFFFFFFFFFFFFFFFFFFFFF AND EQ ISZERO PUSH3 0x414 JUMPI PUSH1 0x40 MLOAD PUSH32 0x8C379A000000000000000000000000000000000000000000000000000000000 DUP2 MSTORE PUSH1 0x4 ADD PUSH3 0x40B SWAP1 PUSH3 0x866 JUMP JUMPDEST PUSH1 0x40 MLOAD DUP1 SWAP2 SUB SWAP1 REVERT JUMPDEST PUSH1 0x2 PUSH1 0x0 SWAP1 SLOAD SWAP1 PUSH2 0x100 EXP SWAP1 DIV PUSH20 0xFFFFFFFFFFFFFFFFFFFFFFFFFFFFFFFFFFFFFFFF AND PUSH20 0xFFFFFFFFFFFFFFFFFFFFFFFFFFFFFFFFFFFFFFFF AND PUSH4 0x546ADF40 PUSH1 0x40 MLOAD DUP2 PUSH4 0xFFFFFFFF AND PUSH1 0xE0 SHL DUP2 MSTORE PUSH1 0x4 ADD PUSH1 0x0 PUSH1 0x40 MLOAD DUP1 DUP4 SUB DUP2 PUSH1 0x0 DUP8 DUP1 EXTCODESIZE ISZERO DUP1 ISZERO PUSH3 0x47F JUMPI PUSH1 0x0 DUP1 REVERT JUMPDEST POP GAS CALL ISZERO DUP1 ISZERO PUSH3 0x494 JUMPI RETURNDATASIZE PUSH1 0x0 DUP1 RETURNDATACOPY RETURNDATASIZE PUSH1 0x0 REVERT JUMPDEST POP POP POP POP PUSH1 0x1 DUP1 PUSH1 0x0 DUP3 DUP3 SLOAD PUSH3 0x4AC SWAP2 SWAP1 PUSH3 0x925 JUMP JUMPDEST SWAP3 POP POP DUP2 SWAP1 SSTORE POP PUSH32 0x60914F5150C7CD538B87DC4F0FA333ED07BAF651181A2F8750CAE6B208D75432 DUP2 ADDRESS PUSH1 0x1 SLOAD PUSH1 0x40 MLOAD PUSH3 0x4EA SWAP4 SWAP3 SWAP2 SWAP1 PUSH3 0x800 JUMP JUMPDEST PUSH1 0x40 MLOAD DUP1 SWAP2 SUB SWAP1 LOG1 POP JUMP JUMPDEST PUSH1 0x0 CALLER SWAP1 POP SWAP1 JUMP JUMPDEST PUSH1 0x0 DUP1 PUSH1 0x0 SWAP1 SLOAD SWAP1 PUSH2 0x100 EXP SWAP1 DIV PUSH20 0xFFFFFFFFFFFFFFFFFFFFFFFFFFFFFFFFFFFFFFFF AND SWAP1 POP DUP2 PUSH1 0x0 DUP1 PUSH2 0x100 EXP DUP2 SLOAD DUP2 PUSH20 0xFFFFFFFFFFFFFFFFFFFFFFFFFFFFFFFFFFFFFFFF MUL NOT AND SWAP1 DUP4 PUSH20 0xFFFFFFFFFFFFFFFFFFFFFFFFFFFFFFFFFFFFFFFF AND MUL OR SWAP1 SSTORE POP DUP2 PUSH20 0xFFFFFFFFFFFFFFFFFFFFFFFFFFFFFFFFFFFFFFFF AND DUP2 PUSH20 0xFFFFFFFFFFFFFFFFFFFFFFFFFFFFFFFFFFFFFFFF AND PUSH32 0x8BE0079C531659141344CD1FD0A4F28419497F9722A3DAAFE3B4186F6B6457E0 PUSH1 0x40 MLOAD PUSH1 0x40 MLOAD DUP1 SWAP2 SUB SWAP1 LOG3 POP POP JUMP JUMPDEST PUSH2 0x592 DUP1 PUSH3 0xBA0 DUP4 CODECOPY ADD SWAP1 JUMP JUMPDEST PUSH1 0x0 PUSH3 0x5E6 PUSH3 0x5E0 DUP5 PUSH3 0x8D3 JUMP JUMPDEST PUSH3 0x8AA JUMP JUMPDEST SWAP1 POP DUP3 DUP2 MSTORE PUSH1 0x20 DUP2 ADD DUP5 DUP5 DUP5 ADD GT ISZERO PUSH3 0x605 JUMPI PUSH3 0x604 PUSH3 0xA9E JUMP JUMPDEST JUMPDEST PUSH3 0x612 DUP5 DUP3 DUP6 PUSH3 0x9C0 JUMP JUMPDEST POP SWAP4 SWAP3 POP POP POP JUMP JUMPDEST PUSH1 0x0 DUP2 CALLDATALOAD SWAP1 POP PUSH3 0x62B DUP2 PUSH3 0xB85 JUMP JUMPDEST SWAP3 SWAP2 POP POP JUMP JUMPDEST PUSH1 0x0 DUP3 PUSH1 0x1F DUP4 ADD SLT PUSH3 0x649 JUMPI PUSH3 0x648 PUSH3 0xA99 JUMP JUMPDEST JUMPDEST DUP2 CALLDATALOAD PUSH3 0x65B DUP5 DUP3 PUSH1 0x20 DUP7 ADD PUSH3 0x5CF JUMP JUMPDEST SWAP2 POP POP SWAP3 SWAP2 POP POP JUMP JUMPDEST PUSH1 0x0 PUSH1 0x20 DUP3 DUP5 SUB SLT ISZERO PUSH3 0x67D JUMPI PUSH3 0x67C PUSH3 0xAA8 JUMP JUMPDEST JUMPDEST PUSH1 0x0 PUSH3 0x68D DUP5 DUP3 DUP6 ADD PUSH3 0x61A JUMP JUMPDEST SWAP2 POP POP SWAP3 SWAP2 POP POP JUMP JUMPDEST PUSH1 0x0 PUSH1 0x20 DUP3 DUP5 SUB SLT ISZERO PUSH3 0x6AF JUMPI PUSH3 0x6AE PUSH3 0xAA8 JUMP JUMPDEST JUMPDEST PUSH1 0x0 DUP3 ADD CALLDATALOAD PUSH8 0xFFFFFFFFFFFFFFFF DUP2 GT ISZERO PUSH3 0x6D0 JUMPI PUSH3 0x6CF PUSH3 0xAA3 JUMP JUMPDEST JUMPDEST PUSH3 0x6DE DUP5 DUP3 DUP6 ADD PUSH3 0x631 JUMP JUMPDEST SWAP2 POP POP SWAP3 SWAP2 POP POP JUMP JUMPDEST PUSH3 0x6F2 DUP2 PUSH3 0x982 JUMP JUMPDEST DUP3 MSTORE POP POP JUMP JUMPDEST PUSH1 0x0 PUSH3 0x705 DUP3 PUSH3 0x909 JUMP JUMPDEST PUSH3 0x711 DUP2 DUP6 PUSH3 0x914 JUMP JUMPDEST SWAP4 POP PUSH3 0x723 DUP2 DUP6 PUSH1 0x20 DUP7 ADD PUSH3 0x9CF JUMP JUMPDEST PUSH3 0x72E DUP2 PUSH3 0xAAD JUMP JUMPDEST DUP5 ADD SWAP2 POP POP SWAP3 SWAP2 POP POP JUMP JUMPDEST PUSH1 0x0 PUSH3 0x748 PUSH1 0x26 DUP4 PUSH3 0x914 JUMP JUMPDEST SWAP2 POP PUSH3 0x755 DUP3 PUSH3 0xABE JUMP JUMPDEST PUSH1 0x40 DUP3 ADD SWAP1 POP SWAP2 SWAP1 POP JUMP JUMPDEST PUSH1 0x0 PUSH3 0x76F PUSH1 0x21 DUP4 PUSH3 0x914 JUMP JUMPDEST SWAP2 POP PUSH3 0x77C DUP3 PUSH3 0xB0D JUMP JUMPDEST PUSH1 0x40 DUP3 ADD SWAP1 POP SWAP2 SWAP1 POP JUMP JUMPDEST PUSH1 0x0 PUSH3 0x796 PUSH1 0x20 DUP4 PUSH3 0x914 JUMP JUMPDEST SWAP2 POP PUSH3 0x7A3 DUP3 PUSH3 0xB5C JUMP JUMPDEST PUSH1 0x20 DUP3 ADD SWAP1 POP SWAP2 SWAP1 POP JUMP JUMPDEST PUSH3 0x7B9 DUP2 PUSH3 0x9B6 JUMP JUMPDEST DUP3 MSTORE POP POP JUMP JUMPDEST PUSH1 0x0 PUSH1 0x20 DUP3 ADD SWAP1 POP PUSH3 0x7D6 PUSH1 0x0 DUP4 ADD DUP5 PUSH3 0x6E7 JUMP JUMPDEST SWAP3 SWAP2 POP POP JUMP JUMPDEST PUSH1 0x0 PUSH1 0x20 DUP3 ADD SWAP1 POP DUP2 DUP2 SUB PUSH1 0x0 DUP4 ADD MSTORE PUSH3 0x7F8 DUP2 DUP5 PUSH3 0x6F8 JUMP JUMPDEST SWAP1 POP SWAP3 SWAP2 POP POP JUMP JUMPDEST PUSH1 0x0 PUSH1 0x60 DUP3 ADD SWAP1 POP DUP2 DUP2 SUB PUSH1 0x0 DUP4 ADD MSTORE PUSH3 0x81C DUP2 DUP7 PUSH3 0x6F8 JUMP JUMPDEST SWAP1 POP PUSH3 0x82D PUSH1 0x20 DUP4 ADD DUP6 PUSH3 0x6E7 JUMP JUMPDEST PUSH3 0x83C PUSH1 0x40 DUP4 ADD DUP5 PUSH3 0x7AE JUMP JUMPDEST SWAP5 SWAP4 POP POP POP POP JUMP JUMPDEST PUSH1 0x0 PUSH1 0x20 DUP3 ADD SWAP1 POP DUP2 DUP2 SUB PUSH1 0x0 DUP4 ADD MSTORE PUSH3 0x85F DUP2 PUSH3 0x739 JUMP JUMPDEST SWAP1 POP SWAP2 SWAP1 POP JUMP JUMPDEST PUSH1 0x0 PUSH1 0x20 DUP3 ADD SWAP1 POP DUP2 DUP2 SUB PUSH1 0x0 DUP4 ADD MSTORE PUSH3 0x881 DUP2 PUSH3 0x760 JUMP JUMPDEST SWAP1 POP SWAP2 SWAP1 POP JUMP JUMPDEST PUSH1 0x0 PUSH1 0x20 DUP3 ADD SWAP1 POP DUP2 DUP2 SUB PUSH1 0x0 DUP4 ADD MSTORE PUSH3 0x8A3 DUP2 PUSH3 0x787 JUMP JUMPDEST SWAP1 POP SWAP2 SWAP1 POP JUMP JUMPDEST PUSH1 0x0 PUSH3 0x8B6 PUSH3 0x8C9 JUMP JUMPDEST SWAP1 POP PUSH3 0x8C4 DUP3 DUP3 PUSH3 0xA05 JUMP JUMPDEST SWAP2 SWAP1 POP JUMP JUMPDEST PUSH1 0x0 PUSH1 0x40 MLOAD SWAP1 POP SWAP1 JUMP JUMPDEST PUSH1 0x0 PUSH8 0xFFFFFFFFFFFFFFFF DUP3 GT ISZERO PUSH3 0x8F1 JUMPI PUSH3 0x8F0 PUSH3 0xA6A JUMP JUMPDEST JUMPDEST PUSH3 0x8FC DUP3 PUSH3 0xAAD JUMP JUMPDEST SWAP1 POP PUSH1 0x20 DUP2 ADD SWAP1 POP SWAP2 SWAP1 POP JUMP JUMPDEST PUSH1 0x0 DUP2 MLOAD SWAP1 POP SWAP2 SWAP1 POP JUMP JUMPDEST PUSH1 0x0 DUP3 DUP3 MSTORE PUSH1 0x20 DUP3 ADD SWAP1 POP SWAP3 SWAP2 POP POP JUMP JUMPDEST PUSH1 0x0 PUSH3 0x932 DUP3 PUSH3 0x9B6 JUMP JUMPDEST SWAP2 POP PUSH3 0x93F DUP4 PUSH3 0x9B6 JUMP JUMPDEST SWAP3 POP DUP3 PUSH32 0xFFFFFFFFFFFFFFFFFFFFFFFFFFFFFFFFFFFFFFFFFFFFFFFFFFFFFFFFFFFFFFFF SUB DUP3 GT ISZERO PUSH3 0x977 JUMPI PUSH3 0x976 PUSH3 0xA3B JUMP JUMPDEST JUMPDEST DUP3 DUP3 ADD SWAP1 POP SWAP3 SWAP2 POP POP JUMP JUMPDEST PUSH1 0x0 PUSH3 0x98F DUP3 PUSH3 0x996 JUMP JUMPDEST SWAP1 POP SWAP2 SWAP1 POP JUMP JUMPDEST PUSH1 0x0 PUSH20 0xFFFFFFFFFFFFFFFFFFFFFFFFFFFFFFFFFFFFFFFF DUP3 AND SWAP1 POP SWAP2 SWAP1 POP JUMP JUMPDEST PUSH1 0x0 DUP2 SWAP1 POP SWAP2 SWAP1 POP JUMP JUMPDEST DUP3 DUP2 DUP4 CALLDATACOPY PUSH1 0x0 DUP4 DUP4 ADD MSTORE POP POP POP JUMP JUMPDEST PUSH1 0x0 JUMPDEST DUP4 DUP2 LT ISZERO PUSH3 0x9EF JUMPI DUP1 DUP3 ADD MLOAD DUP2 DUP5 ADD MSTORE PUSH1 0x20 DUP2 ADD SWAP1 POP PUSH3 0x9D2 JUMP JUMPDEST DUP4 DUP2 GT ISZERO PUSH3 0x9FF JUMPI PUSH1 0x0 DUP5 DUP5 ADD MSTORE JUMPDEST POP POP POP POP JUMP JUMPDEST PUSH3 0xA10 DUP3 PUSH3 0xAAD JUMP JUMPDEST DUP2 ADD DUP2 DUP2 LT PUSH8 0xFFFFFFFFFFFFFFFF DUP3 GT OR ISZERO PUSH3 0xA32 JUMPI PUSH3 0xA31 PUSH3 0xA6A JUMP JUMPDEST JUMPDEST DUP1 PUSH1 0x40 MSTORE POP POP POP JUMP JUMPDEST PUSH32 0x4E487B7100000000000000000000000000000000000000000000000000000000 PUSH1 0x0 MSTORE PUSH1 0x11 PUSH1 0x4 MSTORE PUSH1 0x24 PUSH1 0x0 REVERT JUMPDEST PUSH32 0x4E487B7100000000000000000000000000000000000000000000000000000000 PUSH1 0x0 MSTORE PUSH1 0x41 PUSH1 0x4 MSTORE PUSH1 0x24 PUSH1 0x0 REVERT JUMPDEST PUSH1 0x0 DUP1 REVERT JUMPDEST PUSH1 0x0 DUP1 REVERT JUMPDEST PUSH1 0x0 DUP1 REVERT JUMPDEST PUSH1 0x0 DUP1 REVERT JUMPDEST PUSH1 0x0 PUSH1 0x1F NOT PUSH1 0x1F DUP4 ADD AND SWAP1 POP SWAP2 SWAP1 POP JUMP JUMPDEST PUSH32 0x4F776E61626C653A206E6577206F776E657220697320746865207A65726F2061 PUSH1 0x0 DUP3 ADD MSTORE PUSH32 0x6464726573730000000000000000000000000000000000000000000000000000 PUSH1 0x20 DUP3 ADD MSTORE POP JUMP JUMPDEST PUSH32 0x506172656E743A20556E6465706C6F796564206368696C6420636F6E74726163 PUSH1 0x0 DUP3 ADD MSTORE PUSH32 0x7400000000000000000000000000000000000000000000000000000000000000 PUSH1 0x20 DUP3 ADD MSTORE POP JUMP JUMPDEST PUSH32 0x4F776E61626C653A2063616C6C6572206973206E6F7420746865206F776E6572 PUSH1 0x0 DUP3 ADD MSTORE POP JUMP JUMPDEST PUSH3 0xB90 DUP2 PUSH3 0x982 JUMP JUMPDEST DUP2 EQ PUSH3 0xB9C JUMPI PUSH1 0x0 DUP1 REVERT JUMPDEST POP JUMP INVALID PUSH1 0x80 PUSH1 0x40 MSTORE PUSH1 0x0 PUSH1 0x1 PUSH1 0x0 PUSH2 0x100 EXP DUP2 SLOAD DUP2 PUSH1 0xFF MUL NOT AND SWAP1 DUP4 ISZERO ISZERO MUL OR SWAP1 SSTORE POP CALLVALUE DUP1 ISZERO PUSH2 0x2B JUMPI PUSH1 0x0 DUP1 REVERT JUMPDEST POP PUSH1 0x40 MLOAD PUSH2 0x592 CODESIZE SUB DUP1 PUSH2 0x592 DUP4 CODECOPY DUP2 DUP2 ADD PUSH1 0x40 MSTORE DUP2 ADD SWAP1 PUSH2 0x4D SWAP2 SWAP1 PUSH2 0x197 JUMP JUMPDEST DUP1 PUSH1 0x0 SWAP1 DUP1 MLOAD SWAP1 PUSH1 0x20 ADD SWAP1 PUSH2 0x63 SWAP3 SWAP2 SWAP1 PUSH2 0x84 JUMP JUMPDEST POP PUSH1 0x1 DUP1 PUSH1 0x0 PUSH2 0x100 EXP DUP2 SLOAD DUP2 PUSH1 0xFF MUL NOT AND SWAP1 DUP4 ISZERO ISZERO MUL OR SWAP1 SSTORE POP POP PUSH2 0x34F JUMP JUMPDEST DUP3 DUP1 SLOAD PUSH2 0x90 SWAP1 PUSH2 0x269 JUMP JUMPDEST SWAP1 PUSH1 0x0 MSTORE PUSH1 0x20 PUSH1 0x0 KECCAK256 SWAP1 PUSH1 0x1F ADD PUSH1 0x20 SWAP1 DIV DUP2 ADD SWAP3 DUP3 PUSH2 0xB2 JUMPI PUSH1 0x0 DUP6 SSTORE PUSH2 0xF9 JUMP JUMPDEST DUP3 PUSH1 0x1F LT PUSH2 0xCB JUMPI DUP1 MLOAD PUSH1 0xFF NOT AND DUP4 DUP1 ADD OR DUP6 SSTORE PUSH2 0xF9 JUMP JUMPDEST DUP3 DUP1 ADD PUSH1 0x1 ADD DUP6 SSTORE DUP3 ISZERO PUSH2 0xF9 JUMPI SWAP2 DUP3 ADD JUMPDEST DUP3 DUP2 GT ISZERO PUSH2 0xF8 JUMPI DUP3 MLOAD DUP3 SSTORE SWAP2 PUSH1 0x20 ADD SWAP2 SWAP1 PUSH1 0x1 ADD SWAP1 PUSH2 0xDD JUMP JUMPDEST JUMPDEST POP SWAP1 POP PUSH2 0x106 SWAP2 SWAP1 PUSH2 0x10A JUMP JUMPDEST POP SWAP1 JUMP JUMPDEST JUMPDEST DUP1 DUP3 GT ISZERO PUSH2 0x123 JUMPI PUSH1 0x0 DUP2 PUSH1 0x0 SWAP1 SSTORE POP PUSH1 0x1 ADD PUSH2 0x10B JUMP JUMPDEST POP SWAP1 JUMP JUMPDEST PUSH1 0x0 PUSH2 0x13A PUSH2 0x135 DUP5 PUSH2 0x205 JUMP JUMPDEST PUSH2 0x1E0 JUMP JUMPDEST SWAP1 POP DUP3 DUP2 MSTORE PUSH1 0x20 DUP2 ADD DUP5 DUP5 DUP5 ADD GT ISZERO PUSH2 0x156 JUMPI PUSH2 0x155 PUSH2 0x32F JUMP JUMPDEST JUMPDEST PUSH2 0x161 DUP5 DUP3 DUP6 PUSH2 0x236 JUMP JUMPDEST POP SWAP4 SWAP3 POP POP POP JUMP JUMPDEST PUSH1 0x0 DUP3 PUSH1 0x1F DUP4 ADD SLT PUSH2 0x17E JUMPI PUSH2 0x17D PUSH2 0x32A JUMP JUMPDEST JUMPDEST DUP2 MLOAD PUSH2 0x18E DUP5 DUP3 PUSH1 0x20 DUP7 ADD PUSH2 0x127 JUMP JUMPDEST SWAP2 POP POP SWAP3 SWAP2 POP POP JUMP JUMPDEST PUSH1 0x0 PUSH1 0x20 DUP3 DUP5 SUB SLT ISZERO PUSH2 0x1AD JUMPI PUSH2 0x1AC PUSH2 0x339 JUMP JUMPDEST JUMPDEST PUSH1 0x0 DUP3 ADD MLOAD PUSH8 0xFFFFFFFFFFFFFFFF DUP2 GT ISZERO PUSH2 0x1CB JUMPI PUSH2 0x1CA PUSH2 0x334 JUMP JUMPDEST JUMPDEST PUSH2 0x1D7 DUP5 DUP3 DUP6 ADD PUSH2 0x169 JUMP JUMPDEST SWAP2 POP POP SWAP3 SWAP2 POP POP JUMP JUMPDEST PUSH1 0x0 PUSH2 0x1EA PUSH2 0x1FB JUMP JUMPDEST SWAP1 POP PUSH2 0x1F6 DUP3 DUP3 PUSH2 0x29B JUMP JUMPDEST SWAP2 SWAP1 POP JUMP JUMPDEST PUSH1 0x0 PUSH1 0x40 MLOAD SWAP1 POP SWAP1 JUMP JUMPDEST PUSH1 0x0 PUSH8 0xFFFFFFFFFFFFFFFF DUP3 GT ISZERO PUSH2 0x220 JUMPI PUSH2 0x21F PUSH2 0x2FB JUMP JUMPDEST JUMPDEST PUSH2 0x229 DUP3 PUSH2 0x33E JUMP JUMPDEST SWAP1 POP PUSH1 0x20 DUP2 ADD SWAP1 POP SWAP2 SWAP1 POP JUMP JUMPDEST PUSH1 0x0 JUMPDEST DUP4 DUP2 LT ISZERO PUSH2 0x254 JUMPI DUP1 DUP3 ADD MLOAD DUP2 DUP5 ADD MSTORE PUSH1 0x20 DUP2 ADD SWAP1 POP PUSH2 0x239 JUMP JUMPDEST DUP4 DUP2 GT ISZERO PUSH2 0x263 JUMPI PUSH1 0x0 DUP5 DUP5 ADD MSTORE JUMPDEST POP POP POP POP JUMP JUMPDEST PUSH1 0x0 PUSH1 0x2 DUP3 DIV SWAP1 POP PUSH1 0x1 DUP3 AND DUP1 PUSH2 0x281 JUMPI PUSH1 0x7F DUP3 AND SWAP2 POP JUMPDEST PUSH1 0x20 DUP3 LT DUP2 EQ ISZERO PUSH2 0x295 JUMPI PUSH2 0x294 PUSH2 0x2CC JUMP JUMPDEST JUMPDEST POP SWAP2 SWAP1 POP JUMP JUMPDEST PUSH2 0x2A4 DUP3 PUSH2 0x33E JUMP JUMPDEST DUP2 ADD DUP2 DUP2 LT PUSH8 0xFFFFFFFFFFFFFFFF DUP3 GT OR ISZERO PUSH2 0x2C3 JUMPI PUSH2 0x2C2 PUSH2 0x2FB JUMP JUMPDEST JUMPDEST DUP1 PUSH1 0x40 MSTORE POP POP POP JUMP JUMPDEST PUSH32 0x4E487B7100000000000000000000000000000000000000000000000000000000 PUSH1 0x0 MSTORE PUSH1 0x22 PUSH1 0x4 MSTORE PUSH1 0x24 PUSH1 0x0 REVERT JUMPDEST PUSH32 0x4E487B7100000000000000000000000000000000000000000000000000000000 PUSH1 0x0 MSTORE PUSH1 0x41 PUSH1 0x4 MSTORE PUSH1 0x24 PUSH1 0x0 REVERT JUMPDEST PUSH1 0x0 DUP1 REVERT JUMPDEST PUSH1 0x0 DUP1 REVERT JUMPDEST PUSH1 0x0 DUP1 REVERT JUMPDEST PUSH1 0x0 DUP1 REVERT JUMPDEST PUSH1 0x0 PUSH1 0x1F NOT PUSH1 0x1F DUP4 ADD AND SWAP1 POP SWAP2 SWAP1 POP JUMP JUMPDEST PUSH2 0x234 DUP1 PUSH2 0x35E PUSH1 0x0 CODECOPY PUSH1 0x0 RETURN INVALID PUSH1 0x80 PUSH1 0x40 MSTORE CALLVALUE DUP1 ISZERO PUSH2 0x10 JUMPI PUSH1 0x0 DUP1 REVERT JUMPDEST POP PUSH1 0x4 CALLDATASIZE LT PUSH2 0x2B JUMPI PUSH1 0x0 CALLDATALOAD PUSH1 0xE0 SHR DUP1 PUSH4 0x546ADF40 EQ PUSH2 0x30 JUMPI JUMPDEST PUSH1 0x0 DUP1 REVERT JUMPDEST PUSH2 0x38 PUSH2 0x3A JUMP JUMPDEST STOP JUMPDEST PUSH32 0x7F70B18002B3B297A91EDE416BACE50E4F2665F1F9511E171B23A609D7A8E6F CALLER ADDRESS PUSH1 0x0 PUSH1 0x40 MLOAD PUSH2 0x6E SWAP4 SWAP3 SWAP2 SWAP1 PUSH2 0x107 JUMP JUMPDEST PUSH1 0x40 MLOAD DUP1 SWAP2 SUB SWAP1 LOG1 JUMP JUMPDEST PUSH2 0x81 DUP2 PUSH2 0x16B JUMP JUMPDEST DUP3 MSTORE POP POP JUMP JUMPDEST PUSH1 0x0 DUP2 SLOAD PUSH2 0x94 DUP2 PUSH2 0x19D JUMP JUMPDEST PUSH2 0x9E DUP2 DUP7 PUSH2 0x15A JUMP JUMPDEST SWAP5 POP PUSH1 0x1 DUP3 AND PUSH1 0x0 DUP2 EQ PUSH2 0xB9 JUMPI PUSH1 0x1 DUP2 EQ PUSH2 0xCB JUMPI PUSH2 0xFE JUMP JUMPDEST PUSH1 0xFF NOT DUP4 AND DUP7 MSTORE PUSH1 0x20 DUP7 ADD SWAP4 POP PUSH2 0xFE JUMP JUMPDEST PUSH2 0xD4 DUP6 PUSH2 0x145 JUMP JUMPDEST PUSH1 0x0 JUMPDEST DUP4 DUP2 LT ISZERO PUSH2 0xF6 JUMPI DUP2 SLOAD DUP2 DUP10 ADD MSTORE PUSH1 0x1 DUP3 ADD SWAP2 POP PUSH1 0x20 DUP2 ADD SWAP1 POP PUSH2 0xD7 JUMP JUMPDEST DUP1 DUP9 ADD SWAP6 POP POP POP JUMPDEST POP POP POP SWAP3 SWAP2 POP POP JUMP JUMPDEST PUSH1 0x0 PUSH1 0x60 DUP3 ADD SWAP1 POP PUSH2 0x11C PUSH1 0x0 DUP4 ADD DUP7 PUSH2 0x78 JUMP JUMPDEST PUSH2 0x129 PUSH1 0x20 DUP4 ADD DUP6 PUSH2 0x78 JUMP JUMPDEST DUP2 DUP2 SUB PUSH1 0x40 DUP4 ADD MSTORE PUSH2 0x13B DUP2 DUP5 PUSH2 0x87 JUMP JUMPDEST SWAP1 POP SWAP5 SWAP4 POP POP POP POP JUMP JUMPDEST PUSH1 0x0 DUP2 SWAP1 POP DUP2 PUSH1 0x0 MSTORE PUSH1 0x20 PUSH1 0x0 KECCAK256 SWAP1 POP SWAP2 SWAP1 POP JUMP JUMPDEST PUSH1 0x0 DUP3 DUP3 MSTORE PUSH1 0x20 DUP3 ADD SWAP1 POP SWAP3 SWAP2 POP POP JUMP JUMPDEST PUSH1 0x0 PUSH2 0x176 DUP3 PUSH2 0x17D JUMP JUMPDEST SWAP1 POP SWAP2 SWAP1 POP JUMP JUMPDEST PUSH1 0x0 PUSH20 0xFFFFFFFFFFFFFFFFFFFFFFFFFFFFFFFFFFFFFFFF DUP3 AND SWAP1 POP SWAP2 SWAP1 POP JUMP JUMPDEST PUSH1 0x0 PUSH1 0x2 DUP3 DIV SWAP1 POP PUSH1 0x1 DUP3 AND DUP1 PUSH2 0x1B5 JUMPI PUSH1 0x7F DUP3 AND SWAP2 POP JUMPDEST PUSH1 0x20 DUP3 LT DUP2 EQ ISZERO PUSH2 0x1C9 JUMPI PUSH2 0x1C8 PUSH2 0x1CF JUMP JUMPDEST JUMPDEST POP SWAP2 SWAP1 POP JUMP JUMPDEST PUSH32 0x4E487B7100000000000000000000000000000000000000000000000000000000 PUSH1 0x0 MSTORE PUSH1 0x22 PUSH1 0x4 MSTORE PUSH1 0x24 PUSH1 0x0 REVERT INVALID LOG2 PUSH5 0x6970667358 0x22 SLT KECCAK256 0xB6 0xA8 RETURNDATASIZE 0xC4 0xD5 PUSH26 0xE53DDE3383B4FDF5919F3336AB114DC22E83899D0C9EAE814F88 PUSH5 0x736F6C6343 STOP ADDMOD SMOD STOP CALLER LOG2 PUSH5 0x6970667358 0x22 SLT KECCAK256 0x4A BASEFEE 0xE 0xE5 0xBE PUSH4 0x6A644D62 0xF8 0xF8 0xB6 CODECOPY SWAP5 PUSH13 0xDCA31E4FA0D43122BD4C3B1BBF 0xC6 0x4C SWAP7 PUSH5 0x736F6C6343 STOP ADDMOD SMOD STOP CALLER "
		},
		"gasEstimates": {
			"creation": {
				"codeDepositCost": "891000",
				"executionCost": "infinite",
				"totalCost": "infinite"
			},
			"external": {
				"childGeneration(string)": "infinite",
				"owner()": "2522",
				"renounceOwnership()": "30352",
				"transferOwnership(address)": "30745"
			}
		},
		"methodIdentifiers": {
			"childGeneration(string)": "fb132b44",
			"owner()": "8da5cb5b",
			"renounceOwnership()": "715018a6",
			"transferOwnership(address)": "f2fde38b"
		}
	},
	"abi": [
		{
			"anonymous": false,
			"inputs": [
				{
					"indexed": false,
					"internalType": "string",
					"name": "_name",
					"type": "string"
				},
				{
					"indexed": false,
					"internalType": "address",
					"name": "_parentAddress",
					"type": "address"
				},
				{
					"indexed": false,
					"internalType": "uint256",
					"name": "_childNumber",
					"type": "uint256"
				}
			],
			"name": "ChildGeneration",
			"type": "event"
		},
		{
			"anonymous": false,
			"inputs": [
				{
					"indexed": true,
					"internalType": "address",
					"name": "previousOwner",
					"type": "address"
				},
				{
					"indexed": true,
					"internalType": "address",
					"name": "newOwner",
					"type": "address"
				}
			],
			"name": "OwnershipTransferred",
			"type": "event"
		},
		{
			"inputs": [
				{
					"internalType": "string",
					"name": "_name",
					"type": "string"
				}
			],
			"name": "childGeneration",
			"outputs": [],
			"stateMutability": "nonpayable",
			"type": "function"
		},
		{
			"inputs": [],
			"name": "owner",
			"outputs": [
				{
					"internalType": "address",
					"name": "",
					"type": "address"
				}
			],
			"stateMutability": "view",
			"type": "function"
		},
		{
			"inputs": [],
			"name": "renounceOwnership",
			"outputs": [],
			"stateMutability": "nonpayable",
			"type": "function"
		},
		{
			"inputs": [
				{
					"internalType": "address",
					"name": "newOwner",
					"type": "address"
				}
			],
			"name": "transferOwnership",
			"outputs": [],
			"stateMutability": "nonpayable",
			"type": "function"
		}
	]
}