{
  "contractName": "Mutahhir",
  "abi": [
    {
      "inputs": [],
      "stateMutability": "nonpayable",
      "type": "constructor"
    },
    {
      "anonymous": false,
      "inputs": [
        {
          "indexed": true,
          "internalType": "address",
          "name": "from",
          "type": "address"
        },
        {
          "indexed": true,
          "internalType": "address",
          "name": "to",
          "type": "address"
        },
        {
          "indexed": false,
          "internalType": "uint256",
          "name": "value",
          "type": "uint256"
        }
      ],
      "name": "Approval",
      "type": "event"
    },
    {
      "anonymous": false,
      "inputs": [
        {
          "indexed": true,
          "internalType": "address",
          "name": "from",
          "type": "address"
        },
        {
          "indexed": true,
          "internalType": "address",
          "name": "to",
          "type": "address"
        },
        {
          "indexed": false,
          "internalType": "uint256",
          "name": "value",
          "type": "uint256"
        }
      ],
      "name": "Transfer",
      "type": "event"
    },
    {
      "anonymous": false,
      "inputs": [
        {
          "indexed": true,
          "internalType": "address",
          "name": "from",
          "type": "address"
        },
        {
          "indexed": true,
          "internalType": "address",
          "name": "to",
          "type": "address"
        },
        {
          "indexed": false,
          "internalType": "uint256",
          "name": "value",
          "type": "uint256"
        }
      ],
      "name": "TransferFrom",
      "type": "event"
    },
    {
      "inputs": [],
      "name": "_totalSupply",
      "outputs": [
        {
          "internalType": "uint256",
          "name": "",
          "type": "uint256"
        }
      ],
      "stateMutability": "view",
      "type": "function",
      "constant": true
    },
    {
      "inputs": [],
      "name": "_totalTokens",
      "outputs": [
        {
          "internalType": "uint256",
          "name": "",
          "type": "uint256"
        }
      ],
      "stateMutability": "view",
      "type": "function",
      "constant": true
    },
    {
      "inputs": [],
      "name": "decimals",
      "outputs": [
        {
          "internalType": "uint8",
          "name": "",
          "type": "uint8"
        }
      ],
      "stateMutability": "view",
      "type": "function",
      "constant": true
    },
    {
      "inputs": [],
      "name": "name",
      "outputs": [
        {
          "internalType": "string",
          "name": "",
          "type": "string"
        }
      ],
      "stateMutability": "view",
      "type": "function",
      "constant": true
    },
    {
      "inputs": [],
      "name": "symbol",
      "outputs": [
        {
          "internalType": "string",
          "name": "",
          "type": "string"
        }
      ],
      "stateMutability": "view",
      "type": "function",
      "constant": true
    },
    {
      "inputs": [],
      "name": "totalSupply",
      "outputs": [
        {
          "internalType": "uint256",
          "name": "",
          "type": "uint256"
        }
      ],
      "stateMutability": "view",
      "type": "function",
      "constant": true
    },
    {
      "inputs": [
        {
          "internalType": "address",
          "name": "_owner",
          "type": "address"
        }
      ],
      "name": "balanceOf",
      "outputs": [
        {
          "internalType": "uint256",
          "name": "",
          "type": "uint256"
        }
      ],
      "stateMutability": "view",
      "type": "function",
      "constant": true
    },
    {
      "inputs": [
        {
          "internalType": "address",
          "name": "_to",
          "type": "address"
        },
        {
          "internalType": "uint256",
          "name": "_value",
          "type": "uint256"
        }
      ],
      "name": "transfer",
      "outputs": [
        {
          "internalType": "bool",
          "name": "success",
          "type": "bool"
        }
      ],
      "stateMutability": "nonpayable",
      "type": "function"
    },
    {
      "inputs": [
        {
          "internalType": "address",
          "name": "_from",
          "type": "address"
        },
        {
          "internalType": "address",
          "name": "_to",
          "type": "address"
        },
        {
          "internalType": "uint256",
          "name": "_value",
          "type": "uint256"
        }
      ],
      "name": "transferFrom",
      "outputs": [
        {
          "internalType": "bool",
          "name": "success",
          "type": "bool"
        }
      ],
      "stateMutability": "nonpayable",
      "type": "function"
    },
    {
      "inputs": [
        {
          "internalType": "address",
          "name": "_spender",
          "type": "address"
        },
        {
          "internalType": "uint256",
          "name": "_value",
          "type": "uint256"
        }
      ],
      "name": "approve",
      "outputs": [
        {
          "internalType": "bool",
          "name": "success",
          "type": "bool"
        }
      ],
      "stateMutability": "nonpayable",
      "type": "function"
    },
    {
      "inputs": [
        {
          "internalType": "address",
          "name": "_owner",
          "type": "address"
        },
        {
          "internalType": "address",
          "name": "_spender",
          "type": "address"
        }
      ],
      "name": "allowance",
      "outputs": [
        {
          "internalType": "uint256",
          "name": "remaining",
          "type": "uint256"
        }
      ],
      "stateMutability": "view",
      "type": "function",
      "constant": true
    },
    {
      "inputs": [
        {
          "internalType": "address",
          "name": "_account",
          "type": "address"
        },
        {
          "internalType": "uint256",
          "name": "_amount",
          "type": "uint256"
        }
      ],
      "name": "_mint",
      "outputs": [],
      "stateMutability": "nonpayable",
      "type": "function"
    }
  ],
  "bytecode": "0x60806040523480156200001157600080fd5b506040518060400160405280600381526020017f4d49540000000000000000000000000000000000000000000000000000000000815250600090805190602001906200005f92919062000123565b506040518060400160405280600881526020017f4d7574616868697200000000000000000000000000000000000000000000000081525060019080519060200190620000ad92919062000123565b506008600260006101000a81548160ff021916908360ff160217905550655af3107a4000600381905550600354600560003373ffffffffffffffffffffffffffffffffffffffff1673ffffffffffffffffffffffffffffffffffffffff1681526020019081526020016000208190555062000238565b828054620001319062000202565b90600052602060002090601f016020900481019282620001555760008555620001a1565b82601f106200017057805160ff1916838001178555620001a1565b82800160010185558215620001a1579182015b82811115620001a057825182559160200191906001019062000183565b5b509050620001b09190620001b4565b5090565b5b80821115620001cf576000816000905550600101620001b5565b5090565b7f4e487b7100000000000000000000000000000000000000000000000000000000600052602260045260246000fd5b600060028204905060018216806200021b57607f821691505b60208210811415620002325762000231620001d3565b5b50919050565b61114280620002486000396000f3fe608060405234801561001057600080fd5b50600436106100b45760003560e01c80634e6ec247116100715780634e6ec247146101915780636956f3d5146101ad57806370a08231146101cb57806395d89b41146101fb578063a9059cbb14610219578063dd62ed3e14610249576100b4565b806306fdde03146100b9578063095ea7b3146100d757806318160ddd1461010757806323b872dd14610125578063313ce567146101555780633eaaf86b14610173575b600080fd5b6100c1610279565b6040516100ce9190610bf0565b60405180910390f35b6100f160048036038101906100ec9190610cab565b610307565b6040516100fe9190610d06565b60405180910390f35b61010f610468565b60405161011c9190610d30565b60405180910390f35b61013f600480360381019061013a9190610d4b565b610472565b60405161014c9190610d06565b60405180910390f35b61015d6106cd565b60405161016a9190610dba565b60405180910390f35b61017b6106e0565b6040516101889190610d30565b60405180910390f35b6101ab60048036038101906101a69190610cab565b6106e6565b005b6101b56107e5565b6040516101c29190610d30565b60405180910390f35b6101e560048036038101906101e09190610dd5565b6107eb565b6040516101f29190610d30565b60405180910390f35b610203610834565b6040516102109190610bf0565b60405180910390f35b610233600480360381019061022e9190610cab565b6108c2565b6040516102409190610d06565b60405180910390f35b610263600480360381019061025e9190610e02565b610ad0565b6040516102709190610d30565b60405180910390f35b6001805461028690610e71565b80601f01602080910402602001604051908101604052809291908181526020018280546102b290610e71565b80156102ff5780601f106102d4576101008083540402835291602001916102ff565b820191906000526020600020905b8154815290600101906020018083116102e257829003601f168201915b505050505081565b60008073ffffffffffffffffffffffffffffffffffffffff168373ffffffffffffffffffffffffffffffffffffffff161415610378576040517f08c379a000000000000000000000000000000000000000000000000000000000815260040161036f90610eef565b60405180910390fd5b81600660003373ffffffffffffffffffffffffffffffffffffffff1673ffffffffffffffffffffffffffffffffffffffff16815260200190815260200160002060008573ffffffffffffffffffffffffffffffffffffffff1673ffffffffffffffffffffffffffffffffffffffff168152602001908152602001600020819055508273ffffffffffffffffffffffffffffffffffffffff163373ffffffffffffffffffffffffffffffffffffffff167f8c5be1e5ebec7d5bd14f71427d1e84f3dd0314c0f7b2291e5b200ac8c7c3b925846040516104569190610d30565b60405180910390a36001905092915050565b6000600354905090565b60008073ffffffffffffffffffffffffffffffffffffffff168373ffffffffffffffffffffffffffffffffffffffff1614156104e3576040517f08c379a00000000000000000000000000000000000000000000000000000000081526004016104da90610eef565b60405180910390fd5b81600560008673ffffffffffffffffffffffffffffffffffffffff1673ffffffffffffffffffffffffffffffffffffffff168152602001908152602001600020541015610565576040517f08c379a000000000000000000000000000000000000000000000000000000000815260040161055c90610f5b565b60405180910390fd5b816105708585610ad0565b10156105b1576040517f08c379a00000000000000000000000000000000000000000000000000000000081526004016105a890610fc7565b60405180910390fd5b81600560008673ffffffffffffffffffffffffffffffffffffffff1673ffffffffffffffffffffffffffffffffffffffff16815260200190815260200160002060008282546106009190611016565b9250508190555081600560008573ffffffffffffffffffffffffffffffffffffffff1673ffffffffffffffffffffffffffffffffffffffff1681526020019081526020016000206000828254610656919061104a565b925050819055508273ffffffffffffffffffffffffffffffffffffffff168473ffffffffffffffffffffffffffffffffffffffff167fc0d84ce5c7ff9ca21adb0f8436ff3f4951b4bb78c4e2fae2b6837958b3946ffd846040516106ba9190610d30565b60405180910390a3600190509392505050565b600260009054906101000a900460ff1681565b60035481565b600073ffffffffffffffffffffffffffffffffffffffff168273ffffffffffffffffffffffffffffffffffffffff16141561072057600080fd5b60035481600454610731919061104a565b1115610772576040517f08c379a0000000000000000000000000000000000000000000000000000000008152600401610769906110ec565b60405180910390fd5b8060046000828254610784919061104a565b9250508190555080600560008473ffffffffffffffffffffffffffffffffffffffff1673ffffffffffffffffffffffffffffffffffffffff16815260200190815260200160002060008282546107da919061104a565b925050819055505050565b60045481565b6000600560008373ffffffffffffffffffffffffffffffffffffffff1673ffffffffffffffffffffffffffffffffffffffff168152602001908152602001600020549050919050565b6000805461084190610e71565b80601f016020809104026020016040519081016040528092919081815260200182805461086d90610e71565b80156108ba5780601f1061088f576101008083540402835291602001916108ba565b820191906000526020600020905b81548152906001019060200180831161089d57829003601f168201915b505050505081565b60008073ffffffffffffffffffffffffffffffffffffffff168373ffffffffffffffffffffffffffffffffffffffff161415610933576040517f08c379a000000000000000000000000000000000000000000000000000000000815260040161092a90610eef565b60405180910390fd5b81600560003373ffffffffffffffffffffffffffffffffffffffff1673ffffffffffffffffffffffffffffffffffffffff1681526020019081526020016000205410156109b5576040517f08c379a00000000000000000000000000000000000000000000000000000000081526004016109ac90610f5b565b60405180910390fd5b81600560003373ffffffffffffffffffffffffffffffffffffffff1673ffffffffffffffffffffffffffffffffffffffff1681526020019081526020016000206000828254610a049190611016565b9250508190555081600560008573ffffffffffffffffffffffffffffffffffffffff1673ffffffffffffffffffffffffffffffffffffffff1681526020019081526020016000206000828254610a5a919061104a565b925050819055508273ffffffffffffffffffffffffffffffffffffffff163373ffffffffffffffffffffffffffffffffffffffff167fddf252ad1be2c89b69c2b068fc378daa952ba7f163c4a11628f55a4df523b3ef84604051610abe9190610d30565b60405180910390a36001905092915050565b6000600660008473ffffffffffffffffffffffffffffffffffffffff1673ffffffffffffffffffffffffffffffffffffffff16815260200190815260200160002060008373ffffffffffffffffffffffffffffffffffffffff1673ffffffffffffffffffffffffffffffffffffffff16815260200190815260200160002054905092915050565b600081519050919050565b600082825260208201905092915050565b60005b83811015610b91578082015181840152602081019050610b76565b83811115610ba0576000848401525b50505050565b6000601f19601f8301169050919050565b6000610bc282610b57565b610bcc8185610b62565b9350610bdc818560208601610b73565b610be581610ba6565b840191505092915050565b60006020820190508181036000830152610c0a8184610bb7565b905092915050565b600080fd5b600073ffffffffffffffffffffffffffffffffffffffff82169050919050565b6000610c4282610c17565b9050919050565b610c5281610c37565b8114610c5d57600080fd5b50565b600081359050610c6f81610c49565b92915050565b6000819050919050565b610c8881610c75565b8114610c9357600080fd5b50565b600081359050610ca581610c7f565b92915050565b60008060408385031215610cc257610cc1610c12565b5b6000610cd085828601610c60565b9250506020610ce185828601610c96565b9150509250929050565b60008115159050919050565b610d0081610ceb565b82525050565b6000602082019050610d1b6000830184610cf7565b92915050565b610d2a81610c75565b82525050565b6000602082019050610d456000830184610d21565b92915050565b600080600060608486031215610d6457610d63610c12565b5b6000610d7286828701610c60565b9350506020610d8386828701610c60565b9250506040610d9486828701610c96565b9150509250925092565b600060ff82169050919050565b610db481610d9e565b82525050565b6000602082019050610dcf6000830184610dab565b92915050565b600060208284031215610deb57610dea610c12565b5b6000610df984828501610c60565b91505092915050565b60008060408385031215610e1957610e18610c12565b5b6000610e2785828601610c60565b9250506020610e3885828601610c60565b9150509250929050565b7f4e487b7100000000000000000000000000000000000000000000000000000000600052602260045260246000fd5b60006002820490506001821680610e8957607f821691505b60208210811415610e9d57610e9c610e42565b5b50919050565b7f4d757461686869723a3a20696e76616c69642061646472657373000000000000600082015250565b6000610ed9601a83610b62565b9150610ee482610ea3565b602082019050919050565b60006020820190508181036000830152610f0881610ecc565b9050919050565b7f4d757461686869723a3a20696e73756666696369656e742062616c616e636500600082015250565b6000610f45601f83610b62565b9150610f5082610f0f565b602082019050919050565b60006020820190508181036000830152610f7481610f38565b9050919050565b7f4d757461686869723a3a206e6f7420616c6c6f77616564000000000000000000600082015250565b6000610fb1601783610b62565b9150610fbc82610f7b565b602082019050919050565b60006020820190508181036000830152610fe081610fa4565b9050919050565b7f4e487b7100000000000000000000000000000000000000000000000000000000600052601160045260246000fd5b600061102182610c75565b915061102c83610c75565b92508282101561103f5761103e610fe7565b5b828203905092915050565b600061105582610c75565b915061106083610c75565b9250827fffffffffffffffffffffffffffffffffffffffffffffffffffffffffffffffff0382111561109557611094610fe7565b5b828201905092915050565b7f4d757461686869723a206d696e74206c696d7420726561636865640000000000600082015250565b60006110d6601b83610b62565b91506110e1826110a0565b602082019050919050565b60006020820190508181036000830152611105816110c9565b905091905056fea26469706673582212206bf25cc83378726795828b34384c972dd1c1a8b0e5c3f5e035f5f55d79161cdb64736f6c634300080a0033",
  "immutableReferences": {},
  "source": "// SPDX-License-Identifier: GPL-3.0\r\n\r\npragma solidity 0.8.10;\r\n// 0.8.10 documentation\r\n\r\ncontract Mutahhir {\r\n    string public symbol;\r\n    string public  name;\r\n    uint8 public decimals;\r\n    uint public _totalSupply;\r\n    uint public _totalTokens;\r\n\r\n\r\n    mapping(address => uint) balance;\r\n\r\n    // one coin owner allows another user to spend coins on its behalf\r\n    // owner => recipient => remaining\r\n    mapping(address => mapping(address => uint)) allowed;\r\n\r\n    event Transfer(address indexed from, address indexed to, uint256 value);\r\n    event TransferFrom(address indexed from, address indexed to, uint256 value);\r\n\r\n    event Approval(address indexed from, address indexed to, uint256 value);\r\n\r\n    constructor () {\r\n        symbol = \"MIT\";\r\n        name=\"Mutahhir\";\r\n        decimals = 8;\r\n        _totalSupply= 100000000000000 ;\r\n        balance[msg.sender] = _totalSupply; \r\n    }\r\n    function totalSupply() public view returns (uint256) {\r\n        return _totalSupply;\r\n    }\r\n\r\n    function balanceOf(address _owner) public view returns (uint256){\r\n        return balance[_owner];\r\n    }\r\n\r\n    function transfer(address _to, uint256 _value) public returns (bool success){\r\n        require(_to != address(0), \"Mutahhir:: invalid address\");\r\n        require(balance[msg.sender] >= _value, \"Mutahhir:: insufficient balance\");\r\n        balance[msg.sender] -= _value;\r\n        balance[_to] += _value;\r\n        emit Transfer(msg.sender, _to, _value);\r\n        return true;\r\n    }\r\n\r\n    function transferFrom(address _from, address _to, uint256 _value) public returns (bool success){\r\n        \r\n        require(_to != address(0), \"Mutahhir:: invalid address\");\r\n        require(balance[_from] >= _value, \"Mutahhir:: insufficient balance\");\r\n        require(allowance(_from, _to) >= _value, \"Mutahhir:: not allowaed\");\r\n        balance[_from] -= _value;\r\n        balance[_to] += _value;\r\n        emit TransferFrom(_from, _to, _value);\r\n        return true;\r\n    }\r\n\r\n    // recommends that there are no checks for the approval double-spend attack\r\n    // as this should be implemented in user interfaces \r\n    function approve(address _spender, uint256 _value) public returns (bool success) {\r\n        require(_spender != address(0), \"Mutahhir:: invalid address\");\r\n        allowed[msg.sender][_spender] = _value;\r\n        emit Approval(msg.sender, _spender, _value);\r\n        return true;\r\n    }\r\n\r\n    function allowance(address _owner, address _spender) public view returns (uint256 remaining) {\r\n        return allowed[_owner][_spender];\r\n\r\n    }\r\n\r\n    function _mint(address _account, uint256 _amount) public\r\n    {\r\n        require(_account!=address(0));\r\n        require(_totalTokens + _amount <= _totalSupply,\"Mutahhir: mint limt reached\");\r\n        _totalTokens += _amount;\r\n        balance[_account] += _amount;\r\n        // emit Transfer(address(0), _account, _amount);\r\n    } \r\n\r\n\r\n\r\n\r\n\r\n\r\n}",
  "sourcePath": "F:\\vulgate\\xord-challenges\\typeB\\token-with-truffle-web3\\contracts\\ERC20.sol",
  "compiler": {
    "name": "solc",
    "version": "0.8.10+commit.fc410830.Emscripten.clang"
  },
  "schemaVersion": "3.4.3",
  "updatedAt": "2021-12-11T10:46:23.475Z",
  "networkType": "ethereum",
  "devdoc": {
    "kind": "dev",
    "methods": {},
    "version": 1
  },
  "userdoc": {
    "kind": "user",
    "methods": {},
    "version": 1
  }
}